:020000040800F2
:10000000100F0020CD010008D5010008D70100081D
:10001000D9010008DB010008DD0100080000000034
:10002000000000000000000000000000DF010008E8
:10003000E10100080000000089020008E503000853
:10004000E7010008E7010008E7010008E7010008F0
:10005000E7010008E7010008E7010008E7010008E0
:10006000E7010008E7010008E7010008E7010008D0
:10007000E7010008E7010008E7010008E7010008C0
:10008000E7010008E7010008E7010008E7010008B0
:10009000E7010008E7010008E7010008E7010008A0
:1000A000E7010008E7010008E7010008E701000890
:1000B000E7010008E7010008E7010008E701000880
:1000C000E7010008E7010008E7010008E701000870
:1000D000E7010008E7010008E7010008E701000860
:1000E000E7010008E7010008E7010008E701000850
:1000F000E7010008E7010008E7010008E701000840
:10010000E7010008E7010008E7010008E70100082F
:10011000E7010008E7010008E7010008E70100081F
:10012000E7010008E7010008E7010008E70100080F
:1001300000F002F800F03AF80AA090E8000C8244BF
:100140008344AAF10107DA4501D100F02FF8AFF29C
:10015000090EBAE80F0013F0010F18BFFB1A43F0A5
:1001600001031847BC050000DC050000103A24BF5D
:1001700078C878C1FAD8520724BF30C830C144BF0C
:1001800004680C607047000000230024002500264E
:10019000103A28BF78C1FBD8520728BF30C148BFEA
:1001A0000B6070471FB51FBD10B510BD00F031F8D2
:1001B0001146FFF7F7FF00F003FA00F04FF803B421
:1001C000FFF7F2FF03BC00F057F800000948804732
:1001D00009480047FEE7FEE7FEE7FEE7FEE7FEE729
:1001E000FEE7FEE7FEE7FEE704480549054A064B41
:1001F000704700000D0400083101000810090020BC
:10020000100F0020100B0020100B002070477047CB
:100210007047754600F02CF8AE4605006946534617
:1002200020F00700854618B020B5FFF7DDFFBDE8D8
:1002300020404FF000064FF000074FF000084FF04D
:10024000000B21F00701AC46ACE8C009ACE8C009DE
:10025000ACE8C009ACE8C0098D46704710B504464B
:10026000AFF300802046BDE81040FFF7A8BF0000B4
:1002700000487047B008002001491820ABBEFEE7D7
:10028000260002007047000072B6EFF3098058B1F3
:10029000EFF3098020E9F00F09490968086800B503
:1002A00000F0B6F95DF804EB054800680068B0E8B6
:1002B000F00F80F309884EF0040E62B6704700BF5D
:1002C0000C00002010B5002807DA0A07140E054AB2
:1002D00000F00F031B1FD45403E00A07130E024A59
:1002E000135410BD18ED00E000E400E010B5FF214C
:1002F0006FF00100FFF7E6FF10BD10B500F002F847
:1003000010BD00000CB5002001900090334800683B
:1003100040F480303149086000BF3048006800F484
:10032000003000900198401C0190009818B9019885
:10033000B0F5A06FF1D12948006800F4003010B189
:100340000120009001E0002000900098012843D196
:100350002348006840F01000214908600846006802
:1003600020F0030008600846006840F002000860C2
:100370001A4840681949486008464068486008467D
:10038000406840F4806048600846406820F47C1073
:1003900048600846406840F4E81048600846006835
:1003A00040F08070086000BF0C48006800F00070EA
:1003B0000028F9D00948406820F003000749486048
:1003C0000846406840F00200486000BF03484068AB
:1003D00000F00C000828F9D10CBD0000001002400C
:1003E0000020024000B500F03BF900BD10B5064802
:1003F0004FF0E021486100208861032008610F214F
:10040000001FFFF75FFF10BD8F5F010010B513489D
:10041000006840F001001149086008464068104932
:1004200008400E494860084600680E4908400B49DC
:1004300008600846006820F480200860084640688C
:1004400020F4FE0048604FF41F008860FFF755FF5E
:100450004FF000600449086010BD00000010024029
:100460000000FFF8FFFFF6FE08ED00E0F0B50446DF
:100470000D4630480088082801DD0020F0BD02EB61
:1004800083014FF08076081F01460660081F014671
:1004900004604FF01436081F014606604FF0123614
:1004A000081F014606604FF00336081F014606602C
:1004B0004FF00236081F014606607610081F0146FD
:1004C0000660081F014605604FF01136081F0146FF
:1004D00006604FF01036081F014606604FF00936DF
:1004E000081F014606604FF00836081F01460660E7
:1004F0004FF00736081F014606604FF00636081F0A
:10050000014606604FF00536081F014606604FF0B1
:100510000436081F014606600748064E368840F834
:10052000261004480088034E3688761C014F3E8012
:10053000A4E700000A0000209008002010B5202346
:10054000064A00210648FFF791FF06480649086061
:100550004FF0000484F3098810BD0000100800204B
:100560001D070008900800200C0000201248806938
:1005700040F01000104988611048006820F4706055
:100580000E4908600846006840F44070086008465C
:10059000C06820F00400C8600846006820F470407D
:1005A00008600846006840F4405008600846C0688B
:1005B00040F00800C8607047001002400010014081
:1005C00000F01CF8FFF7D2FF4FF48073074A0021B8
:1005D0000748FFF74BFF4FF48073064A0021064897
:1005E000FFF744FF00F00EF800BFFEE71000002008
:1005F0007506000810040020C906000810B5FFF7B2
:100600009DFF10BD10B5FFF771FEFFF7EFFE10BDA7
:100610000F480088401E0F49098888420BDC0C48AF
:100620000088022803DA00200A49088008E0012037
:100630000849088004E007480088401C05490880F4
:1006400005480449098800EB8100044908607047A7
:100650000A00002008000020900800200C00002064
:100660000348006840F0805001490860704700006E
:1006700004ED00E000BF1148806800F00400042889
:1006800006D10E48C06820F004000C49C86005E09F
:100690000A48C06840F004000849C860084800687B
:1006A00008B9012000E0002005490860002000E0B2
:1006B000401C04498842DEDAFAE7000000100140DD
:1006C0000000002040420F0000BF1148C06800F049
:1006D0000800082806D10E48C06820F008000C4920
:1006E000C86005E00A48C06840F008000849C860D2
:1006F0000848006808B9012000E0002005490860AA
:10070000002000E0401C04498842DEDAFAE70000DD
:10071000001001400400002040420F0000BFFEE72F
:100720004007000800000020100000006C010008D5
:100730005007000810000020000F0000880100088A
:1007400000000000010000000000000000000000A8
:0400000508000131BD
:00000001FF
